{
  "_format": "hh-sol-artifact-1",
  "contractName": "Store",
  "sourceName": "contracts/Store.sol",
  "abi": [
    {
      "inputs": [
        {
          "internalType": "address",
          "name": "_tokenAddress",
          "type": "address"
        },
        {
          "internalType": "address",
          "name": "_chestAddress",
          "type": "address"
        },
        {
          "internalType": "address",
          "name": "_itemsAddress",
          "type": "address"
        }
      ],
      "stateMutability": "nonpayable",
      "type": "constructor"
    },
    {
      "anonymous": false,
      "inputs": [
        {
          "indexed": true,
          "internalType": "address",
          "name": "previousOwner",
          "type": "address"
        },
        {
          "indexed": true,
          "internalType": "address",
          "name": "newOwner",
          "type": "address"
        }
      ],
      "name": "OwnershipTransferred",
      "type": "event"
    },
    {
      "inputs": [],
      "name": "CHEST_VALUE",
      "outputs": [
        {
          "internalType": "uint256",
          "name": "",
          "type": "uint256"
        }
      ],
      "stateMutability": "view",
      "type": "function"
    },
    {
      "inputs": [],
      "name": "buyChest",
      "outputs": [],
      "stateMutability": "nonpayable",
      "type": "function"
    },
    {
      "inputs": [],
      "name": "owner",
      "outputs": [
        {
          "internalType": "address",
          "name": "",
          "type": "address"
        }
      ],
      "stateMutability": "view",
      "type": "function"
    },
    {
      "inputs": [],
      "name": "renounceOwnership",
      "outputs": [],
      "stateMutability": "nonpayable",
      "type": "function"
    },
    {
      "inputs": [
        {
          "internalType": "address",
          "name": "newOwner",
          "type": "address"
        }
      ],
      "name": "transferOwnership",
      "outputs": [],
      "stateMutability": "nonpayable",
      "type": "function"
    }
  ],
  "bytecode": "0x608060405234801561001057600080fd5b50604051610cb7380380610cb7833981810160405281019061003291906101fa565b61004e61004361011960201b60201c565b61012160201b60201c565b82600160006101000a81548173ffffffffffffffffffffffffffffffffffffffff021916908373ffffffffffffffffffffffffffffffffffffffff16021790555081600260006101000a81548173ffffffffffffffffffffffffffffffffffffffff021916908373ffffffffffffffffffffffffffffffffffffffff16021790555080600360006101000a81548173ffffffffffffffffffffffffffffffffffffffff021916908373ffffffffffffffffffffffffffffffffffffffff160217905550505050610292565b600033905090565b60008060009054906101000a900473ffffffffffffffffffffffffffffffffffffffff169050816000806101000a81548173ffffffffffffffffffffffffffffffffffffffff021916908373ffffffffffffffffffffffffffffffffffffffff1602179055508173ffffffffffffffffffffffffffffffffffffffff168173ffffffffffffffffffffffffffffffffffffffff167f8be0079c531659141344cd1fd0a4f28419497f9722a3daafe3b4186f6b6457e060405160405180910390a35050565b6000815190506101f48161027b565b92915050565b60008060006060848603121561020f57600080fd5b600061021d868287016101e5565b935050602061022e868287016101e5565b925050604061023f868287016101e5565b9150509250925092565b60006102548261025b565b9050919050565b600073ffffffffffffffffffffffffffffffffffffffff82169050919050565b61028481610249565b811461028f57600080fd5b50565b610a16806102a16000396000f3fe608060405234801561001057600080fd5b50600436106100575760003560e01c8063344cf3b61461005c578063715018a61461007a5780638da5cb5b14610084578063cd63acf9146100a2578063f2fde38b146100ac575b600080fd5b6100646100c8565b6040516100719190610927565b60405180910390f35b6100826100d5565b005b61008c61015d565b604051610099919061084c565b60405180910390f35b6100aa610186565b005b6100c660048036038101906100c191906106a7565b6104a4565b005b6802b5e3af16b188000081565b6100dd61059c565b73ffffffffffffffffffffffffffffffffffffffff166100fb61015d565b73ffffffffffffffffffffffffffffffffffffffff1614610151576040517f08c379a000000000000000000000000000000000000000000000000000000000815260040161014890610907565b60405180910390fd5b61015b60006105a4565b565b60008060009054906101000a900473ffffffffffffffffffffffffffffffffffffffff16905090565b600061019061059c565b90506802b5e3af16b1880000600160009054906101000a900473ffffffffffffffffffffffffffffffffffffffff1673ffffffffffffffffffffffffffffffffffffffff166370a08231836040518263ffffffff1660e01b81526004016101f7919061084c565b60206040518083038186803b15801561020f57600080fd5b505afa158015610223573d6000803e3d6000fd5b505050506040513d601f19601f8201168201806040525081019061024791906106f9565b1015610288576040517f08c379a000000000000000000000000000000000000000000000000000000000815260040161027f906108e7565b60405180910390fd5b6000600260009054906101000a900473ffffffffffffffffffffffffffffffffffffffff1673ffffffffffffffffffffffffffffffffffffffff1663fcfff16f6040518163ffffffff1660e01b8152600401602060405180830381600087803b1580156102f457600080fd5b505af1158015610308573d6000803e3d6000fd5b505050506040513d601f19601f8201168201806040525081019061032c91906106f9565b9050600160009054906101000a900473ffffffffffffffffffffffffffffffffffffffff1673ffffffffffffffffffffffffffffffffffffffff166323b872dd8361037561015d565b6802b5e3af16b18800006040518463ffffffff1660e01b815260040161039d93929190610867565b602060405180830381600087803b1580156103b757600080fd5b505af11580156103cb573d6000803e3d6000fd5b505050506040513d601f19601f820116820180604052508101906103ef91906106d0565b50600360009054906101000a900473ffffffffffffffffffffffffffffffffffffffff1673ffffffffffffffffffffffffffffffffffffffff1663f6a4a3fd83836040518363ffffffff1660e01b815260040161044d92919061089e565b602060405180830381600087803b15801561046757600080fd5b505af115801561047b573d6000803e3d6000fd5b505050506040513d601f19601f8201168201806040525081019061049f91906106f9565b505050565b6104ac61059c565b73ffffffffffffffffffffffffffffffffffffffff166104ca61015d565b73ffffffffffffffffffffffffffffffffffffffff1614610520576040517f08c379a000000000000000000000000000000000000000000000000000000000815260040161051790610907565b60405180910390fd5b600073ffffffffffffffffffffffffffffffffffffffff168173ffffffffffffffffffffffffffffffffffffffff161415610590576040517f08c379a0000000000000000000000000000000000000000000000000000000008152600401610587906108c7565b60405180910390fd5b610599816105a4565b50565b600033905090565b60008060009054906101000a900473ffffffffffffffffffffffffffffffffffffffff169050816000806101000a81548173ffffffffffffffffffffffffffffffffffffffff021916908373ffffffffffffffffffffffffffffffffffffffff1602179055508173ffffffffffffffffffffffffffffffffffffffff168173ffffffffffffffffffffffffffffffffffffffff167f8be0079c531659141344cd1fd0a4f28419497f9722a3daafe3b4186f6b6457e060405160405180910390a35050565b6000813590506106778161099b565b92915050565b60008151905061068c816109b2565b92915050565b6000815190506106a1816109c9565b92915050565b6000602082840312156106b957600080fd5b60006106c784828501610668565b91505092915050565b6000602082840312156106e257600080fd5b60006106f08482850161067d565b91505092915050565b60006020828403121561070b57600080fd5b600061071984828501610692565b91505092915050565b61072b81610953565b82525050565b600061073e602683610942565b91507f4f776e61626c653a206e6577206f776e657220697320746865207a65726f206160008301527f64647265737300000000000000000000000000000000000000000000000000006020830152604082019050919050565b60006107a4602b83610942565b91507f62757943686573743a2073656e64657220646f65736e2774206861766520656e60008301527f6f75676820746f6b656e730000000000000000000000000000000000000000006020830152604082019050919050565b600061080a602083610942565b91507f4f776e61626c653a2063616c6c6572206973206e6f7420746865206f776e65726000830152602082019050919050565b61084681610991565b82525050565b60006020820190506108616000830184610722565b92915050565b600060608201905061087c6000830186610722565b6108896020830185610722565b610896604083018461083d565b949350505050565b60006040820190506108b36000830185610722565b6108c0602083018461083d565b9392505050565b600060208201905081810360008301526108e081610731565b9050919050565b6000602082019050818103600083015261090081610797565b9050919050565b60006020820190508181036000830152610920816107fd565b9050919050565b600060208201905061093c600083018461083d565b92915050565b600082825260208201905092915050565b600061095e82610971565b9050919050565b60008115159050919050565b600073ffffffffffffffffffffffffffffffffffffffff82169050919050565b6000819050919050565b6109a481610953565b81146109af57600080fd5b50565b6109bb81610965565b81146109c657600080fd5b50565b6109d281610991565b81146109dd57600080fd5b5056fea26469706673582212207828945294a6a11f3d7b2dff8138a4919b9e3d909576d825758f01301b38491664736f6c63430008000033",
  "linkReferences": {},
  "deployedLinkReferences": {}
}